{
  "contractName": "Lottery",
  "abi": [
    {
      "inputs": [],
      "stateMutability": "nonpayable",
      "type": "constructor"
    },
    {
      "inputs": [],
      "name": "owner",
      "outputs": [
        {
          "internalType": "address",
          "name": "",
          "type": "address"
        }
      ],
      "stateMutability": "view",
      "type": "function"
    },
    {
      "inputs": [
        {
          "internalType": "uint256",
          "name": "",
          "type": "uint256"
        }
      ],
      "name": "players",
      "outputs": [
        {
          "internalType": "uint256",
          "name": "fid",
          "type": "uint256"
        },
        {
          "internalType": "uint256",
          "name": "chances",
          "type": "uint256"
        }
      ],
      "stateMutability": "view",
      "type": "function"
    },
    {
      "inputs": [],
      "name": "totalChances",
      "outputs": [
        {
          "internalType": "uint256",
          "name": "",
          "type": "uint256"
        }
      ],
      "stateMutability": "view",
      "type": "function"
    },
    {
      "inputs": [
        {
          "internalType": "uint256[]",
          "name": "fids",
          "type": "uint256[]"
        },
        {
          "internalType": "uint256[]",
          "name": "chances",
          "type": "uint256[]"
        }
      ],
      "name": "addPlayers",
      "outputs": [],
      "stateMutability": "nonpayable",
      "type": "function"
    },
    {
      "inputs": [],
      "name": "pickWinners",
      "outputs": [
        {
          "internalType": "uint256[10]",
          "name": "",
          "type": "uint256[10]"
        }
      ],
      "stateMutability": "nonpayable",
      "type": "function"
    }
  ],
  "bytecode": "0x6080604052600060015534801561001557600080fd5b5033600260006101000a81548173ffffffffffffffffffffffffffffffffffffffff021916908373ffffffffffffffffffffffffffffffffffffffff160217905550610b5d806100666000396000f3fe608060405234801561001057600080fd5b50600436106100575760003560e01c80632c246a8c1461005c5780638da5cb5b1461007a578063dc07820f14610098578063dc3cbe0d146100b6578063f71d96cb146100d2575b600080fd5b610064610103565b60405161007191906105a0565b60405180910390f35b610082610109565b60405161008f91906105fc565b60405180910390f35b6100a061012f565b6040516100ad91906106c2565b60405180910390f35b6100d060048036038101906100cb919061074d565b61033f565b005b6100ec60048036038101906100e791906107fa565b6104f9565b6040516100fa929190610827565b60405180910390f35b60015481565b600260009054906101000a900473ffffffffffffffffffffffffffffffffffffffff1681565b610137610564565b600260009054906101000a900473ffffffffffffffffffffffffffffffffffffffff1673ffffffffffffffffffffffffffffffffffffffff163373ffffffffffffffffffffffffffffffffffffffff16146101c7576040517f08c379a00000000000000000000000000000000000000000000000000000000081526004016101be906108ad565b60405180910390fd5b6101cf610564565b60008060015490505b600a821015610336576000816101ec61052d565b6101f691906108fc565b90506000805b600080549050811015610320576000818154811061021d5761021c61092d565b5b9060005260206000209060020201600101548261023a919061098b565b91508183101561030d576000805b868110156102af57600083815481106102645761026361092d565b5b9060005260206000209060020201600001548882600a81106102895761028861092d565b5b60200201510361029c57600191506102af565b80806102a7906109e1565b915050610248565b508061030b57600082815481106102c9576102c861092d565b5b9060005260206000209060020201600001548787600a81106102ee576102ed61092d565b5b6020020181815250508580610302906109e1565b96505050610320565b505b8080610318906109e1565b9150506101fc565b50808361032d9190610a29565b925050506101d8565b82935050505090565b600260009054906101000a900473ffffffffffffffffffffffffffffffffffffffff1673ffffffffffffffffffffffffffffffffffffffff163373ffffffffffffffffffffffffffffffffffffffff16146103cf576040517f08c379a00000000000000000000000000000000000000000000000000000000081526004016103c6906108ad565b60405180910390fd5b818190508484905014610417576040517f08c379a000000000000000000000000000000000000000000000000000000000815260040161040e90610aa9565b60405180910390fd5b60005b848490508110156104f257600060405180604001604052808787858181106104455761044461092d565b5b9050602002013581526020018585858181106104645761046361092d565b5b905060200201358152509080600181540180825580915050600190039060005260206000209060020201600090919091909150600082015181600001556020820151816001015550508282828181106104c0576104bf61092d565b5b90506020020135600160008282546104d8919061098b565b9250508190555080806104ea906109e1565b91505061041a565b5050505050565b6000818154811061050957600080fd5b90600052602060002090600202016000915090508060000154908060010154905082565b6000444260015460405160200161054693929190610aea565b6040516020818303038152906040528051906020012060001c905090565b604051806101400160405280600a90602082028036833780820191505090505090565b6000819050919050565b61059a81610587565b82525050565b60006020820190506105b56000830184610591565b92915050565b600073ffffffffffffffffffffffffffffffffffffffff82169050919050565b60006105e6826105bb565b9050919050565b6105f6816105db565b82525050565b600060208201905061061160008301846105ed565b92915050565b6000600a9050919050565b600081905092915050565b6000819050919050565b61064081610587565b82525050565b60006106528383610637565b60208301905092915050565b6000602082019050919050565b61067481610617565b61067e8184610622565b92506106898261062d565b8060005b838110156106ba5781516106a18782610646565b96506106ac8361065e565b92505060018101905061068d565b505050505050565b6000610140820190506106d8600083018461066b565b92915050565b600080fd5b600080fd5b600080fd5b600080fd5b600080fd5b60008083601f84011261070d5761070c6106e8565b5b8235905067ffffffffffffffff81111561072a576107296106ed565b5b602083019150836020820283011115610746576107456106f2565b5b9250929050565b60008060008060408587031215610767576107666106de565b5b600085013567ffffffffffffffff811115610785576107846106e3565b5b610791878288016106f7565b9450945050602085013567ffffffffffffffff8111156107b4576107b36106e3565b5b6107c0878288016106f7565b925092505092959194509250565b6107d781610587565b81146107e257600080fd5b50565b6000813590506107f4816107ce565b92915050565b6000602082840312156108105761080f6106de565b5b600061081e848285016107e5565b91505092915050565b600060408201905061083c6000830185610591565b6108496020830184610591565b9392505050565b600082825260208201905092915050565b7f43616c6c6572206973206e6f7420746865206f776e6572000000000000000000600082015250565b6000610897601783610850565b91506108a282610861565b602082019050919050565b600060208201905081810360008301526108c68161088a565b9050919050565b7f4e487b7100000000000000000000000000000000000000000000000000000000600052601260045260246000fd5b600061090782610587565b915061091283610587565b925082610922576109216108cd565b5b828206905092915050565b7f4e487b7100000000000000000000000000000000000000000000000000000000600052603260045260246000fd5b7f4e487b7100000000000000000000000000000000000000000000000000000000600052601160045260246000fd5b600061099682610587565b91506109a183610587565b9250827fffffffffffffffffffffffffffffffffffffffffffffffffffffffffffffffff038211156109d6576109d561095c565b5b828201905092915050565b60006109ec82610587565b91507fffffffffffffffffffffffffffffffffffffffffffffffffffffffffffffffff8203610a1e57610a1d61095c565b5b600182019050919050565b6000610a3482610587565b9150610a3f83610587565b925082821015610a5257610a5161095c565b5b828203905092915050565b7f4669647320616e64206368616e636573206c656e677468206d69736d61746368600082015250565b6000610a93602083610850565b9150610a9e82610a5d565b602082019050919050565b60006020820190508181036000830152610ac281610a86565b9050919050565b6000819050919050565b610ae4610adf82610587565b610ac9565b82525050565b6000610af68286610ad3565b602082019150610b068285610ad3565b602082019150610b168284610ad3565b60208201915081905094935050505056fea26469706673582212205ba5c237f02076baed7982f4ab5d4dfcdde7af0a8e129eeb43e04bac9cdd21f064736f6c634300080e0033",
  "immutableReferences": {},
  "source": "// SPDX-License-Identifier: MIT\npragma solidity ^0.8.0;\n\ncontract Lottery {\n    struct Player {\n        uint256 fid; // Player ID\n        uint256 chances;\n    }\n\n    Player[] public players;\n    uint256 public totalChances = 0;\n    address public owner;\n\n    constructor() {\n        owner = msg.sender; // Set the owner to the address that deploys the contract\n    }\n\n    modifier onlyOwner() {\n        require(msg.sender == owner, \"Caller is not the owner\");\n        _;\n    }\n\n    // Function to add players, restricted to onlyOwner\n    function addPlayers(uint256[] calldata fids, uint256[] calldata chances) external onlyOwner {\n        require(fids.length == chances.length, \"Fids and chances length mismatch\");\n\n        for (uint i = 0; i < fids.length; i++) {\n            players.push(Player({\n                fid: fids[i],\n                chances: chances[i]\n            }));\n            totalChances += chances[i];\n        }\n    }\n\n    // Basic random number generator\n    function random() private view returns (uint256) {\n        return uint256(keccak256(abi.encodePacked(block.difficulty, block.timestamp, totalChances)));\n    }\n\n    // Function to pick 10 winners, restricted to onlyOwner\n    function pickWinners() external onlyOwner returns (uint256[10] memory) {\n        uint256[10] memory winners;\n        uint256 winnerCount = 0;\n        uint256 drawChances = totalChances;\n\n        while(winnerCount < 10) {\n            uint256 rand = random() % drawChances;\n            uint256 sum = 0;\n\n            for (uint i = 0; i < players.length; i++) {\n                sum += players[i].chances;\n                if (rand < sum) {\n                    bool alreadyWon = false;\n                    for(uint j = 0; j < winnerCount; j++) {\n                        if(winners[j] == players[i].fid) {\n                            alreadyWon = true;\n                            break;\n                        }\n                    }\n                    if(!alreadyWon) {\n                        winners[winnerCount] = players[i].fid;\n                        winnerCount++;\n                        break;\n                    }\n                }\n            }\n            drawChances = drawChances - sum;\n        }\n\n        return winners;\n    }\n}\n",
  "sourcePath": "/home/fhd/projects/alireza/lottery/contracts/Lottery.sol",
  "compiler": {
    "name": "solc",
    "version": "0.8.14+commit.80d49f37.Emscripten.clang"
  },
  "schemaVersion": "3.4.7",
  "updatedAt": "2024-04-19T11:41:36.506Z",
  "devdoc": {
    "kind": "dev",
    "methods": {},
    "version": 1
  },
  "userdoc": {
    "kind": "user",
    "methods": {},
    "version": 1
  }
}